:040000005BEF00F0C2
:100008004A82FACF40F0FBCF41F0D9CF42F0DACFA5
:1000180043F0F3CF44F0F4CF45F0F6CF46F0F7CFF6
:1000280047F0F8CF48F0F5CF49F0A0A61EEF00F052
:1000380020EF00F035EF00F0A1A625EF00F027EF44
:1000480000F035EF00F002D833EF00F00500FA6E4B
:100058002B50FD6E2C50FE6EFF6AFA50120045EFD1
:1000680000F09DA63AEF00F03CEF00F045EF00F0FD
:100078009EA641EF00F043EF00F045EF00F027EFB8
:1000880000F049C0F5FF48C0F8FF47C0F7FF46C079
:10009800F6FF45C0F4FF44C0F3FF43C0DAFF42C097
:1000A800D9FF41C0FBFF40C0FAFF4A921100B5EFEB
:0200B8000CF04A
:1010000000361BD61AE41AF21056122C1B981480C4
:101010001B781B701B681B601B581B501B221BD0AE
:091020001664617465203A0000B9
:10102A004CEC0DF0F28EF28CF28C080E0001846FFB
:10103A00050E856FA20E41EC0DF0030E00018B6FB9
:10104A00080E8A6F770EE82EFED78A2FFCD78B2FD1
:10105A00FAD7080E0001846F060E856FA60E41ECC2
:10106A000DF0030E00018B6F080E8A6F770EE82EC3
:10107A00FED78A2FFCD78B2FFAD7080E0001846F70
:10108A00A20E11EC0DF02F6E080E0001846FA60E51
:10109A0011EC0DF02E6E00EC0BF020EE60F0050E58
:1010AA00EBCFDBFFE806FCE2D8EC08F09E0EF9EC89
:1010BA000CF02D6E000E0001816F2DC082F0700EB3
:1010CA0089EC0AF00B0E00018B6F260E8A6F5D0EFB
:1010DA00E82EFED78A2FFCD78B2FFAD700F000F024
:1010EA0050EF08F05BEF00F061EC0DF00009D8B4A6
:1010FA0081EF08F083EF08F0BDEF08F091EF08F0F8
:10110A00C0EC0DF0D7EF08F0BCEC0DF0D7EF08F00B
:10111A00B4EC0DF0D7EF08F013C03AF014C03BF06E
:10112A0002D8A1EF08F00500FA6E0750FD6E0850CC
:10113A00FE6EFF6AFA5012003C6E3D6A3D50000A8C
:10114A00D8B4AAEF08F08DEF08F03C50010AD8B4E1
:10115A008DEF08F0030AD8B485EF08F0010AD8B475
:10116A0089EF08F0070AD8B48DEF08F08DEF08F080
:10117A0024901EC0D9FF1FC0DAFF1E4A1F2ADF5063
:10118A00C4EC0DF02006D8A0210620502110D8A4C6
:10119A00D1EF08F0D3EF08F0D6EF08F0060ED7EF3C
:1011AA0008F0030E12002A380F0B300F0001666F89
:1011BA002A500F0B300F676F3A0E686F29380F0BE2
:1011CA00300F696F29500F0B300F6A6F3A0E6B6F31
:1011DA0028380F0B300F6C6F28500F0B300F6D6FC4
:1011EA002F0E6E6F25380F0B300F6F6F25500F0BB8
:1011FA00300F706F3A0E716F26380F0B300F726F07
:10120A0026500F0B300F736F3A0E746F27380F0B7F
:10121A00300F756F27500F0B300F766F0D0E776FEB
:10122A00210E796F100E7A6F000E7C6F080E7B6F9D
:10123A009AEC0BF0660E0001796F000E7A6F000EC1
:10124A007C6F120E7B6F9AEC0BF01200DFEC0DF044
:10125A001EC0D9FF1FC0DAFFDF6E1E4A1F2A2006F2
:10126A00D8A0210620502110D8B43EEF09F040EF53
:10127A0009F045EF09F0CBEC0DF0050E7CEF09F013
:10128A00248650EF09F0A8EC0DF07CEF09F0ACECE5
:10129A000DF07CEF09F00DC03AF00EC03BF002D819
:1012AA0060EF09F00500FA6E0150FD6E0250FE6E05
:1012BA00FF6AFA5012003C6E3D6A3D50000AD8B4EB
:1012CA0069EF09F04CEF09F03C50010AD8B44CEF31
:1012DA0009F0030AD8B448EF09F0010AD8B448EF74
:1012EA0009F0070AD8B44CEF09F04CEF09F01200E4
:1012FA0000017A6F010E00017B6F24B487EF09F0B9
:10130A0089EF09F0CCEF09F07AC01DF02492248409
:10131A0024900E0E226E010E1C6EF40E1B6E248695
:10132A00CA0E016E1B0E026E000E0D6E000E0E6EC0
:10133A00CA0E036E1B0E046E000E0F6E000E106EA8
:10134A00CA0E056E1B0E066E000E116E000E126E90
:10135A00CA0E076E1B0E086E000E136E000E146E78
:10136A00C60E096E1B0E0A6E000E156E000E166E64
:10137A00900E786F1B0E796F8CEC0DF0D9EC0DF096
:10138A00D7EC0CF0D1EC0DF0000E00017B6F7B5115
:10139A0012000001826F000E0001836F000182516A
:1013AA007DEC09F00009D8B4DDEF09F0DFEF09F0B0
:1013BA00D3EF09F0120E00017D6F190E7E6F830EB6
:1013CA007F6F000E806F1DEC0DF0810E0001786FAB
:1013DA00000E796F000E7B6F010E7A6FC6EC0CF06F
:1013EA00000E00017D6F000E7E6F000E7F6F000EF3
:1013FA00806F29EC0DF0A4EC0DF046EC0CF0E80639
:10140A00D8B40AEF0AF00CEF0AF002EF0AF0000172
:10141A008351120000017C6F000178517911D8B410
:10142A0019EF0AF01BEF0AF035EF0AF07C51020DB2
:10143A00010EF324D96E000EF420DA6E78C0DEFFB6
:10144A0079C0DDFF7C51020D0D0EF324D96E000E1A
:10145A00F420DA6E7AC0DEFF7BC0DDFF4BEF0AF0C4
:10146A007C51020D010EF324D96E000EF420DA6EBF
:10147A00CA0EDE6E1B0EDD6E7C51020D0D0EF324BC
:10148A00D96E000EF420DA6EDE6ADD6A1200248656
:10149A005CEF0AF0B8EC0DF088EF0AF0DDEC0DF025
:1014AA00030E88EF0AF0B4EC0DF088EF0AF00DC0D5
:1014BA003AF00EC03BF002D86CEF0AF00500FA6E63
:1014CA000150FD6E0250FE6EFF6AFA5012003C6E29
:1014DA003D6A3D50000AD8B475EF0AF058EF0AF099
:1014EA003C50010AD8B458EF0AF0030AD8B44FEFB7
:1014FA000AF0010AD8B44FEF0AF0070AD8B453EF3A
:10150A000AF058EF0AF012000001836F00018351BC
:10151A007DEC09F00009D8B495EF0AF097EF0AF0CC
:10152A008BEF0AF0BA0E00017D6F180E7E6F820EE5
:10153A007F6F000E806F1DEC0DF0810E0001786F39
:10154A00000E796F000E7B6F010E7A6FC6EC0CF0FD
:10155A00000E00017D6F000E7E6F000E7F6F000E81
:10156A00806F29EC0DF0A4EC0DF046EC0CF0E806C7
:10157A00D8B4C2EF0AF0C4EF0AF0BAEF0AF01200C8
:10158A00356E31503210D8B4CDEF0AF0CFEF0AF0F1
:10159A00E9EF0AF03550020D010EF324D96E000E60
:1015AA00F420DA6E31C0DEFF32C0DDFF3550020DA5
:1015BA000D0EF324D96E000EF420DA6E33C0DEFF6E
:1015CA0034C0DDFFFFEF0AF03550020D010EF3249F
:1015DA00D96E000EF420DA6ECA0EDE6E1B0EDD6EB8
:1015EA003550020D0D0EF324D96E000EF420DA6E7A
:1015FA00DE6ADD6A1200000E0001816FD00ECEECA9
:10160A0009F0276E010E0001816FD00ECEEC09F0B1
:10161A00266E020E0001816FD00ECEEC09F0256E07
:10162A00040E0001816FD00ECEEC09F02A6E050E71
:10163A000001816FD00ECEEC09F0296E060E000172
:10164A00816FD00ECEEC09F0286E20EE25F000EE68
:10165A0084F0050EDBCFEBFFE806FCE21200DBECC0
:10166A000DF024A03BEF0BF03DEF0BF049EF0BF030
:10167A0061EC0DF00009D8B445EF0BF047EF0BF021
:10168A0049EF0BF00F0E226E2250020D010EF324C9
:10169A00F66E100EF420F76EF86A000EF8220900B2
:1016AA00F5CF3EF00900F5CF3FF002D866EF0BF018
:1016BA000500FA6E3E50FD6E3F50FE6EFF6AFA500C
:1016CA001200226E12002490020E236E75EF0BF0A8
:1016DA00B8EC0DF099EF0BF0B4EC0DF099EF0BF0BC
:1016EA0011C03AF012C03BF002D885EF0BF00500AA
:1016FA00FA6E0550FD6E0650FE6EFF6AFA50120031
:10170A003C6E3D6A3D50000AD8B48EEF0BF071EF83
:10171A000BF03C50020AD8B46DEF0BF0010AD8B4B2
:10172A006DEF0BF071EF0BF01200000E00017E6FEF
:10173A00000E7D6F000E7E6F000E7D6FBDEF0BF009
:10174A0079C0F6FF7AC0F7FF000EF86E0F0EF76445
:10175A0003D00800F55005D0F6CFE9FFF7CFEAFF2E
:10176A00EF5005EC0DF00001794B7A2B7D4B7E2B67
:10177A007B517D5D7C517E59D8A0C6EF0BF0C8EF36
:10178A000BF0A5EF0BF01200080EB86E900EAB6EC0
:10179A00240EAC6EA00EAF6E010EB06E000E0001EC
:1017AA00786F000E796F82EC0DF0000E0001786FF1
:1017BA00000E796F7DEC0DF0000E0001786F000EBF
:1017CA00796F87EC0DF0000E306E12000001786F11
:1017DA00010E0001796F24B2F5EF0BF0F7EF0BF071
:1017EA000AEF0CF02482000E796F7851D8B400EF1A
:1017FA000CF002EF0CF006EF0CF0010E226E08EF6F
:10180A000CF0020E226ED3EC0DF000017951120099
:10181A0020EE02F03A50D9263B50DA22DECF31F0E0
:10182A00DDCF32F03AC0D9FF3BC0DAFFDECF33F06A
:10183A00DDCF34F0E8EC0CF0000E366E000E376E99
:10184A00000E386E000E396E35EC0DF0020E1200E5
:10185A00000E8D6E000E8C6E000E896E000E8A6E62
:10186A00000E8B6E070E966E92689368BF0E946E8A
:10187A00FE0E956E7E681F0E7F6E000E7C6EF18ED8
:10188A001200010E0001786F24B24EEF0CF050EFF7
:10189A000CF05AEF0CF024941D68D9EC0DF0D5EC3D
:1018AA000DF0D7EC0DF023C078F00001785112004A
:1018BA003AC031F03BC032F0000E346E010E336E86
:1018CA00E8EC0CF0000E366E000E376E000E386E25
:1018DA00000E396E35EC0DF0040E12003AC031F0EC
:1018EA003BC032F0000E346E020E336EE8EC0CF0A0
:1018FA00000E366E000E376E000E386E000E396E10
:10190A0035EC0DF0020E12003AC031F03BC032F055
:10191A00000E346E010E336EE8EC0CF0000E366EDB
:10192A00000E376E000E386E000E396E35EC0DF073
:10193A00020E12003AC031F03BC032F0000E346E93
:10194A00020E336EE8EC0CF0000E366E000E376EA7
:10195A00000E386E000E396E35EC0DF0040E1200D2
:10196A0000EE60F0180EEE6AE806FDE100EE01F006
:10197A00300EEE6AE806FDE14A904A92000115EF40
:10198A0008F024A6CBEF0CF0CDEF0CF0D6EF0CF05C
:10199A0078C01EF079C01FF07AC020F07BC021F019
:1019AA0024961200C6BADCEF0CF0DEEF0CF0E7EF7B
:1019BA000CF0800EC76E080EC66E000EC56E270E9E
:1019CA00C86EC68A120024A6EDEF0CF0EFEF0CF0F9
:1019DA00F8EF0CF031C01EF032C01FF033C020F017
:1019EA0034C021F0249612000001846F000E000119
:1019FA00816F8451CEEC09F00001856F8551120088
:101A0A000001786F9EA80CEF0DF00EEF0DF007EFB6
:101A1A000DF078C0ADFF12000001856F84C081F01F
:101A2A0000018551CEEC09F00001866F8651120043
:101A3A007DC078F07EC079F07FC07AF080C07BF0FC
:101A4A00000E0FEC0AF012007DC078F07EC079F02B
:101A5A007FC07AF080C07BF0020E0FEC0AF0120011
:101A6A0036C031F037C032F038C033F039C034F004
:101A7A00000EC5EC0AF012000001866F84C081F0E6
:101A8A0085C082F00001865189EC0AF01200A0ECB0
:101A9A000DF057EC0DF02DEC0CF078EC0DF0C9ECD4
:101AAA000BF01200800EC76E080EC66E000EC56ED1
:101ABA00270EC86EC69A1200C5BC66EF0DF069EF14
:101ACA000DF0010E6AEF0DF0000E120024801D5079
:101ADA000109C4EC0DF0050E120024801D50C4EC5F
:101AEA000DF0030E1200300ED36E000E9B6E120024
:101AFA0078C08EF079C08FF0120078C090F079C06B
:101B0A0091F0120078C08CF079C08DF0120078C084
:101B1A002BF079C02CF012002492000E236E0E0EC8
:101B2A0012002490E1EC0DF0040E12002492000E33
:101B3A00236E0E0E1200D08EA2869F861200000E11
:101B4A00EBEC0BF01200CEEC0DF0090E1200CEEC0D
:101B5A000DF00A0E1200CBEC0DF0050E1200E7ECA8
:101B6A000DF0000E1200E9EC0DF0010E1200E9EC86
:101B7A000DF0020E1200E9EC0DF0010E1200316EAA
:101B8A0031C0C9FF120034EC0BF01200C59AC588A7
:101B9A001200C58AC58812009D861200C5801200EF
:101BAA009D961200C69A12009E9612009E961200E8
:101BBA009E861200C9501200C5861200050E120038
:0C1BCA00010E1200C5841200C58212003A
:020000040020DA
:08000000FFFFFFFFFFFFFFFF00
:020000040030CA
:0E000000FF021F1EFF8B85FF0FC00FE00F4099
:00000001FF
